:020000040800F2
:100000000050002079170008C1170008C117000828
:10001000C1170008C1170008C11700080000000040
:10002000000000000000000000000000C1170008F0
:10003000C117000800000000C1170008C117000820
:10004000C1170008C1170008C117000825170008CC
:10005000C1170008C1170008C1170008C117000820
:10006000C1170008C1170008C1170008C117000810
:10007000C1170008C1170008C1170008C117000800
:10008000C1170008C1170008C1170008C1170008F0
:10009000C1170008C1170008C1170008C1170008E0
:1000A000C1170008C1170008C1170008C1170008D0
:1000B000C1170008C1170008C1170008C1170008C0
:1000C000C1170008C1170008C1170008C1170008B0
:1000D000C1170008C1170008C1170008C1170008A0
:1000E000C1170008C1170008C11700080000000070
:1000F0000000000000000000000000000000000000
:0C01000000000000000000005FF808F1A3
:10010C0080B483B000AF7860054A7B6843F0BF636E
:10011C0043F40033D36007F10C07BD4680BC704735
:10012C0000ED00E080B487B000AF78604FF00003C2
:10013C007B614FF000033B614FF00F03FB607B686A
:10014C00DB78002B3DD02A4BDB686FEA030303F40A
:10015C00E0634FEA13237B617B69C3F104033B61CA
:10016C007B69FA6822FA03F3FB607B685B781A46BA
:10017C003B6902FA03F37B617B689B781A46FB6848
:10018C0013407A6913437B617B694FEA03137B61EC
:10019C0018497B681B787A69D2B2CB1883F8002394
:1001AC00144B7A6812784FEA5212D2B279680978F5
:1001BC0001F01F014FF0010000FA01F143F8221089
:1001CC0011E00C4B7A6812784FEA5212D2B279686D
:1001DC00097801F01F014FF0010000FA01F102F162
:1001EC00200243F8221007F11C07BD4680BC704763
:1001FC0000ED00E000E100E080B483B000AF786077
:10020C003960074A3B6823F0604323F07F03796829
:10021C000B43936007F10C07BD4680BC704700BFD1
:10022C0000ED00E080B483B000AF02460B46FA71DB
:10023C00BB71BB79002B06D0094B094A1169FA79BD
:10024C000A431A6107E0064B054A1169FA796FEA0D
:10025C0002020A401A6107F10C07BD4680BC7047C8
:10026C0000ED00E080B483B000AF78607B68042BB5
:10027C0006D1094B084A126842F004021A6005E0E4
:10028C00054B054A126822F004021A6007F10C07AC
:10029C00BD4680BC704700BF10E000E080B582B066
:1002AC0000AF78607A683C4B9A420CD14FF0040056
:1002BC004FF0010100F066FF4FF004004FF0000119
:1002CC0000F060FF64E07A68344B9A420CD14FF036
:1002DC0008004FF0010100F055FF4FF008004FF0FF
:1002EC00000100F04FFF53E07A682D4B9A420CD17D
:1002FC004FF010004FF0010100F044FF4FF01000E0
:10030C004FF0000100F03EFF42E07A68254B9A4224
:10031C000CD14FF020004FF0010100F033FF4FF0F3
:10032C0020004FF0000100F02DFF31E07A681E4BE9
:10033C009A420CD14FF040004FF0010100F022FF27
:10034C004FF040004FF0000100F01CFF20E07A68F5
:10035C00164B9A420CD14FF080004FF0010100F087
:10036C0011FF4FF080004FF0000100F00BFF0FE089
:10037C007A680F4B9A420BD14FF480704FF0010109
:10038C0000F000FF4FF480704FF0000100F0FAFE17
:10039C0007F10807BD4680BD00080140000C014074
:1003AC00001001400014014000180140001C0140E5
:1003BC000020014080B500AF4FF001004FF001016B
:1003CC0000F0E0FE4FF001004FF0000100F0DAFE0B
:1003DC0080BD00BF80B489B000AF786039604FF049
:1003EC000003FB614FF000033B614FF00003BB6166
:1003FC004FF00003FB604FF000037B614FF00003F4
:10040C00BB603B68DB7803F00F03FB613B68DB7878
:10041C0003F01003002B04D03B689B78FA6913435C
:10042C00FB613B681B88DBB2002B4ED07B681B68E2
:10043C007B614FF00003BB6141E0BB694FF00102EF
:10044C0002FA03F3FB603B681B881A46FB681340F7
:10045C003B613A69FB689A422DD1BB694FEA830331
:10046C00FB60FB684FF00F0202FA03F3BB60BB6842
:10047C006FEA03037A6913407B61FB68FA6902FA3D
:10048C0003F37A6913437B613B68DB78282B07D134
:10049C00BB694FF0010202FA03F27B685A610AE071
:1004AC003B68DB78482B06D1BB694FF0010202FA9E
:1004BC0003F27B681A61BB6903F10103BB61BB6981
:1004CC00072BBAD97B687A691A603B681B88FF2BAB
:1004DC0053D97B685B687B614FF00003BB6146E0DE
:1004EC00BB6903F108034FF0010202FA03F3FB604E
:1004FC003B681B881A46FB6813403B613A69FB68F2
:10050C009A4230D1BB694FEA8303FB60FB684FF022
:10051C000F0202FA03F3BB60BB686FEA03037A694C
:10052C0013407B61FB68FA6902FA03F37A6913439F
:10053C007B613B68DB78282B08D1BB6903F108038E
:10054C004FF0010202FA03F27B685A613B68DB78D8
:10055C00482B08D1BB6903F108034FF0010202FAE2
:10056C0003F27B681A61BB6903F10103BB61BB69D0
:10057C00072BB5D97B687A695A6007F12407BD4609
:10058C0080BC704780B483B000AF78607B684FF656
:10059C00FF721A807B684FF002029A707B684FF0F2
:1005AC000402DA7007F10C07BD4680BC704700BF2F
:1005BC0080B485B000AF78600B467B804FF00003B1
:1005CC00FB737B689A687B881340002B03D04FF039
:1005DC000103FB7302E04FF00003FB73FB7B184637
:1005EC0007F11407BD4680BC704700BF80B483B0D0
:1005FC0000AF78607B689B689BB2184607F10C07CC
:10060C00BD4680BC704700BF80B485B000AF786039
:10061C000B467B804FF00003FB737B68DA687B88AA
:10062C001340002B03D04FF00103FB7302E04FF09B
:10063C000003FB73FB7B184607F11407BD4680BC17
:10064C00704700BF80B483B000AF78607B68DB6814
:10065C009BB2184607F10C07BD4680BC704700BF23
:10066C0080B483B000AF78600B467B807A887B685F
:10067C001A6107F10C07BD4680BC704780B483B08B
:10068C0000AF78600B467B807A887B685A6107F1F3
:10069C000C07BD4680BC704780B483B000AF786057
:1006AC0013460A467A807B707B78002B03D07A88BD
:1006BC007B681A6102E07A887B685A6107F10C0743
:1006CC00BD4680BC704700BF80B483B000AF78607B
:1006DC000B467B807A887B68DA6007F10C07BD4695
:1006EC0080BC704780B485B000AF78600B467B80CF
:1006FC004FF48033FB607B88FA681343FB607B68A4
:10070C00FA689A617A887B689A617B68FA689A6160
:10071C007B689B69FB607B689B69FB6007F1140736
:10072C00BD4680BC704700BF80B485B000AF0246A8
:10073C000B46FA71BB714FF00003FB600C4B1B684E
:10074C00FB60FA684FF680731340FB60FB794FEA4D
:10075C000313FA681343FB60BB79FA681343FB601D
:10076C00034BFA681A6007F11407BD4680BC70474A
:10077C000000014080B483B000AF0346FB71044B12
:10078C00FA791A6007F10C07BD4680BC704700BFB0
:10079C001C00204280B487B000AF78600B46FB7021
:1007AC004FF000033B614FF00003FB604FF0000380
:1007BC007B614FF00003BB607B68002B03DA344B8A
:1007CC00DB697B6102E0324B5B687B617B6803F425
:1007DC0070234FEA1343BB607B684FEA03434FEA35
:1007EC0013433B617B6803F44013B3F5401F0AD1FC
:1007FC007B6923F070637B61254B254A526822F09C
:10080C0070625A6026E07B6803F48013002B10D0D2
:10081C00BB684FF0030202FA03F3FB60FB686FEA5C
:10082C0003037A6913407B617B6943F070637B61DE
:10083C0010E07B684FEA53534FEA03133A6902FA0C
:10084C0003F36FEA03037A6913407B617B6943F01E
:10085C0070637B61FB78002B0AD07B684FEA5353A3
:10086C004FEA03133A6902FA03F37A6913437B6183
:10087C007B68002B03DA064B7A69DA6102E0044BE1
:10088C007A695A6007F11C07BD4680BC704700BFEF
:10089C000000014090B484B000AF02460B46FA71E0
:1008AC00BB714FF00003FB60BB7903F003034FEA0D
:1008BC0083034FF00F0202FA03F3FB601A4BBA7971
:1008CC004FEA9202D2B21849B8794FEA9000C0B2FE
:1008DC0000F1020051F82000F9686FEA01010140B3
:1008EC0002F1020243F822100F4BBA794FEA92023E
:1008FC00D2B20D49B8794FEA9000C0B200F10200B3
:10090C0051F82000FC79B97901F003014FEA81011B
:10091C0004FA01F1014302F1020243F8221007F13B
:10092C001007BD4690BC70470000014080B483B0F6
:10093C0000AF7860034B7A681A6007F10C07BD466C
:10094C0080BC7047DC00204280B400AF30BFBD4695
:10095C0080BC704780B400AF20BFBD4680BC7047E0
:10096C0080B500AF4FF080504FF0010100F02AFC31
:10097C004FF080504FF0000100F024FC80BD00BF10
:10098C0080B483B000AF0346FB71044BFA791A6054
:10099C0007F10C07BD4680BC704700BF20000E421B
:1009AC0080B483B000AF0346FB71044BFA791A6034
:1009BC0007F10C07BD4680BC704700BF10000E420B
:1009CC0080B485B000AF78604FF00003FB60094B3A
:1009DC001B68FB60FB6823F0E003FB60FA687B6834
:1009EC001343FB60034BFA681A6007F11407BD460A
:1009FC0080BC70470070004080B483B000AF0346E9
:100A0C00FB71044BFA791A6007F10C07BD4680BCE8
:100A1C00704700BFA0000E4280B584B000AF786074
:100A2C000B46FB704FF00003FB60134B1B68FB6025
:100A3C00FB6823F00303FB60FA687B681343FB60DD
:100A4C000D4BFA681A600D4B0C4A126942F0040205
:100A5C001A61FB78012B02D1FFF776FF01E0FFF75B
:100A6C0079FF064B054A126922F004021A6107F15C
:100A7C001007BD4680BD00BF0070004000ED00E0D7
:100A8C0080B500AF0A4B0A4A126842F004021A60A1
:100A9C00074B074A126842F002021A60054B054ADE
:100AAC00126942F004021A61FFF74EFF80BD00BFCD
:100ABC000070004000ED00E080B485B000AF7860BD
:100ACC004FF00003FB730A4B5A687B681340002BF2
:100ADC0003D04FF00103FB7302E04FF00003FB73F4
:100AEC00FB7B184607F11407BD4680BC704700BF5E
:100AFC000070004080B483B000AF7860064B064AAB
:100B0C0011687A684FEA82020A431A6007F10C07EF
:100B1C00BD4680BC704700BF0070004080B400AF81
:100B2C00134B134A126842F001021A60104A104B20
:100B3C005968104B0B4053600D4A0D4B1B6823F04A
:100B4C00847323F480331360094B094A126822F42E
:100B5C0080221A60064B064A526822F4FE025A6042
:100B6C00034B4FF41F029A60BD4680BC704700BF18
:100B7C00001002400000FFF880B483B000AF786032
:100B8C00134B134A126822F480321A60104B104A2D
:100B9C00126822F480221A607B68B3F5803F03D080
:100BAC00B3F5802F07D00DE0094B094A126842F4C7
:100BBC0080321A6007E0064B054A126842F4A02204
:100BCC001A6000E000BF07F10C07BD4680BC7047FF
:100BDC000010024080B582B000AF4FF000033B60C4
:100BEC004FF00003FB714FF00003BB714FF031006D
:100BFC0000F038FB0346BB713B6803F101033B601B
:100C0C003B68B3F5A06F02D0BB79002BEED04FF050
:100C1C00310000F027FB0346002B03D04FF00103FB
:100C2C00FB7102E04FF00003FB71FB79184607F1F2
:100C3C000807BD4680BD00BF80B485B000AF034639
:100C4C00FB714FF00003FB600A4B1B68FB60FB68F9
:100C5C0023F0F803FB60FB794FEAC303FA681343F4
:100C6C00FB60044BFA681A6007F11407BD4680BCA0
:100C7C00704700BF0010024080B483B000AF034641
:100C8C00FB71044BFA791A6007F10C07BD4680BC66
:100C9C00704700BF0000424280B485B000AF78605E
:100CAC0039604FF00003FB600A4B5B68FB60FB682C
:100CBC0023F47C13FB607A683B681343FA68134394
:100CCC00FB60044BFA685A6007F11407BD4680BC00
:100CDC00704700BF0010024080B483B000AF0346E1
:100CEC00FB71044BFA791A6007F10C07BD4680BC06
:100CFC00704700BF6000424280B485B000AF78609E
:100D0C004FF00003FB60094B5B68FB60FB6823F052
:100D1C000303FB60FA687B681343FB60034BFA68C0
:100D2C005A6007F11407BD4680BC704700100240A2
:100D3C0080B400AF044B5B68DBB203F00C03DBB296
:100D4C001846BD4680BC70470010024080B485B088
:100D5C0000AF78604FF00003FB60094B5B68FB60F1
:100D6C00FB6823F0F003FB60FA687B681343FB60BD
:100D7C00034BFA685A6007F11407BD4680BC7047F4
:100D8C000010024080B485B000AF78604FF00003D3
:100D9C00FB60094B5B68FB60FB6823F4E063FB6062
:100DAC00FA687B681343FB60034BFA685A6007F1DF
:100DBC001407BD4680BC70470010024080B485B05B
:100DCC0000AF78604FF00003FB600A4B5B68FB6080
:100DDC00FB6823F46053FB607B684FEAC303FA683B
:100DEC001343FB60034BFA685A6007F11407BD46C6
:100DFC0080BC70470010024080B483B000AF024644
:100E0C000B46FA71BB71BB79002B08D00C4B0C4A0A
:100E1C001278D1B2FA790A43D2B21A700AE0084BAE
:100E2C00074A1278D1B2FA796FEA0202D2B20A40BA
:100E3C00D2B21A7007F10C07BD4680BC704700BFD8
:100E4C000910024080B483B000AF7860034B7A681D
:100E5C001A6007F10C07BD4680BC7047D8004242AF
:100E6C0080B485B000AF78604FF00003FB60094B95
:100E7C005B68FB60FB6823F44043FB60FA687B68AB
:100E8C001343FB60034BFA685A6007F11407BD4625
:100E9C0080BC70470010024080B483B000AF0346A2
:100EAC00FB710F4B4FF000021A700D4B4FF000020C
:100EBC001A70FB79012B02D0042B05D009E0084BEA
:100ECC004FF001021A7005E0054B4FF005021A7045
:100EDC0000E000BF07F10C07BD4680BC704700BFA7
:100EEC002010024080B483B000AF0346FB71044B6A
:100EFC00FA791A6007F10C07BD4680BC704700BF39
:100F0C008004424280B483B000AF7860054B054A40
:100F1C00116A7A680A431A6207F10C07BD4680BC55
:100F2C00704700BF0010024080B483B000AF03468E
:100F3C00FB71044BFA791A6007F10C07BD4680BCB3
:100F4C00704700BF3C04424280B487B000AF786069
:100F5C004FF000037B614FF000033B614FF0000347
:100F6C00FB604FF00003BB60514B5B6803F00C035C
:100F7C007B617B69042B07D0082B09D0002B35D162
:100F8C007B684C4A1A6035E07B684A4A1A6031E04B
:100F9C00474B5B6803F470133B61454B5B6803F490
:100FAC008033FB603B694FEA934303F102033B61DF
:100FBC00FB68002B06D13B693F4A02FB03F27B68BE
:100FCC001A6017E03A4B5B6803F40033002B06D031
:100FDC003B69394A02FB03F27B681A600AE03B6901
:100FEC00344A02FB03F27B681A6003E07B68314AE7
:100FFC001A6000BF2E4B5B6803F0F0037B617B69CA
:10100C004FEA13137B612D4A7B69D3181B78DBB233
:10101C00BB607B681A68BB6822FA03F27B685A6073
:10102C00234B5B6803F4E0637B617B694FEA13231A
:10103C007B61224A7B69D3181B78DBB2BB607B686F
:10104C005A68BB6822FA03F27B689A60184B5B689B
:10105C0003F460537B617B694FEAD3237B61174AAE
:10106C007B69D3181B78DBB2BB607B685A68BB68A2
:10107C0022FA03F27B68DA600D4B5B6803F44043A1
:10108C007B617B694FEA93337B610D4A7B69D31893
:10109C001B78DBB2BB607B68DA68BB68B2FBF3F22F
:1010AC007B681A6107F11C07BD4680BC704700BF06
:1010BC000010024000127A0000093D0000000020E0
:1010CC001000002080B483B000AF78600B46FB703A
:1010DC00FB78002B06D00A4B094A51697A680A43FF
:1010EC005A6107E0064B064A51697A686FEA0202B8
:1010FC000A405A6107F10C07BD4680BC704700BF1F
:10110C000010024080B483B000AF78600B46FB70D7
:10111C00FB78002B06D00A4B094A91697A680A437E
:10112C009A6107E0064B064A91697A686FEA0202F7
:10113C000A409A6107F10C07BD4680BC704700BF9E
:10114C000010024080B483B000AF78600B46FB7097
:10115C00FB78002B06D00A4B094AD1697A680A43FE
:10116C00DA6107E0064B064AD1697A686FEA020237
:10117C000A40DA6107F10C07BD4680BC704700BF1E
:10118C000010024080B483B000AF78600B46FB7057
:10119C00FB78002B06D00A4B094AD1687A680A43BF
:1011AC00DA6007E0064B064AD1687A686FEA0202F9
:1011BC000A40DA6007F10C07BD4680BC704700BFDF
:1011CC000010024080B483B000AF78600B46FB7017
:1011DC00FB78002B06D00A4B094A11697A680A433E
:1011EC001A6107E0064B064A11697A686FEA020237
:1011FC000A401A6107F10C07BD4680BC704700BF5E
:10120C000010024080B483B000AF0346FB71044B66
:10121C00FA791A6007F10C07BD4680BC704700BF15
:10122C004004424280B483B000AF0346FB71044BD0
:10123C00FA791A6007F10C07BD4680BC704700BFF5
:10124C004C00424280B483B000AF0346FB71044BA8
:10125C00FA791A7007F10C07BD4680BC704700BFC5
:10126C000710024080B487B000AF0346FB714FF00B
:10127C000003FB604FF000037B614FF00003FB7435
:10128C00FB794FEA5313DBB2FB60FB68012B03D1F4
:10129C00134B1B687B6109E0FB68022B03D1104BDD
:1012AC001B6A7B6102E00E4B5B6A7B61FB7903F08E
:1012BC001F03FB60FB687A6922FA03F303F0010356
:1012CC00002B03D04FF00103FB7402E04FF000033E
:1012DC00FB74FB7C184607F11C07BD4680BC7047AD
:1012EC000010024080B400AF044B044A526A42F032
:1012FC0080725A62BD4680BC704700BF001002402D
:10130C0080B485B000AF0346FB714FF00003FB7354
:10131C00094B9A68FB791340002B03D04FF0010363
:10132C00FB7302E04FF00003FB73FB7B184607F1E5
:10133C001407BD4680BC70470010024080B483B0D7
:10134C0000AF0346FB71044BFA791A7007F10C07D6
:10135C00BD4680BC704700BF0A10024080B483B009
:10136C0000AF02460B46FA807B717B79002B08D0CC
:10137C000C4B0C4A128891B2FA880A4392B21A802A
:10138C000AE0084B074A128891B2FA886FEA020207
:10139C0092B20A4092B21A8007F10C07BD4680BC8B
:1013AC00704700BF0028004080B400AF054B054AD1
:1013BC00928892B242F0100292B29A80BD4680BCE2
:1013CC00704700BF0028004080B400AF054B054AB1
:1013DC00928892B222F0100292B29A80BD4680BCE2
:1013EC00704700BF0028004080B483B000AF4FF0BE
:1013FC000003FB80074B9B8BFB80064B1B8B9BB22C
:10140C004FEA0342FB881343184607F10C07BD460D
:10141C0080BC70470028004080B582B000AF786077
:10142C00FFF7C2FF074B7A684FEA124292B21A8357
:10143C00044B7A6892B29A83FFF7C6FF07F108074C
:10144C00BD4680BD0028004080B582B000AF7860FA
:10145C00FFF7AAFF084B7A6802F470224FEA124297
:10146C0092B21A81044B7A6892B29A81FFF7ACFF60
:10147C0007F10807BD4680BD0028004080B582B04A
:10148C0000AF7860FFF790FF074B7A684FEA124283
:10149C0092B21A84044B7A6892B29A84FFF794FF42
:1014AC0007F10807BD4680BD0028004080B483B01A
:1014BC0000AF4FF000037B600A4B1B8A9BB203F01A
:1014CC000F034FEA03437B60064B9B8A9BB27A68FF
:1014DC0013437B607B68184607F10C07BD4680BC44
:1014EC00704700BF0028004080B400AF00BF054B20
:1014FC009B889BB203F02003002BF8D0BD4680BC28
:10150C00704700BF0028004080B400AF094B094A67
:10151C00928892B222F0080292B29A8000BF054BD8
:10152C009B889BB203F00803002BF8D0BD4680BC0F
:10153C00704700BF0028004080B485B000AF034660
:10154C00FB804FF00003FB730A4B9B889AB2FB881D
:10155C0013409BB2002B03D04FF00103FB7302E04E
:10156C004FF00003FB73FB7B184607F11407BD46D5
:10157C0080BC70470028004080B483B000AF0346A5
:10158C00FB80084B074A928891B2FA886FEA0202F4
:10159C0092B20A4092B29A8007F10C07BD4680BC09
:1015AC00704700BF0028004080B485B000AF0346F0
:1015BC00FB804FF00003FB73104B9B889BB2DAB29D
:1015CC00FB88DBB21340FB730C4B1B889AB2FB8875
:1015DC0013409BB2002B06D0FB7B002B03D04FF0AB
:1015EC000103FB7302E04FF00003FB73FB7B184617
:1015FC0007F11407BD4680BC704700BF00280040AF
:10160C0080B483B000AF0346FB80084B074A928836
:10161C0091B2FA886FEA020292B20A4092B29A80B0
:10162C0007F10C07BD4680BC704700BF0028004086
:10163C0080B400AF00BFBD4680BC704780B582B09F
:10164C0000AF334B4FF000021A704FF010004FF008
:10165C000101FFF757FD2F48FEF720FE4FF6FF73F1
:10166C00BB804FF01003FB714FF00303BB7107F10C
:10167C00040328481946FEF7ADFE4FF4E060FEF770
:10168C003FFD4FF003033B704FF001037B704FF0B5
:10169C000303BB704FF00103FB703B461846FEF78B
:1016AC0041FD4FF0C0504FF00101FFF74BFD4FF0E3
:1016BC000100FFF765F94FF00100FFF7EDFB00BFEC
:1016CC004FF04100FFF7CEFD0346002BF8D04FF44E
:1016DC008070FFF717FC4FF00100FFF725FCFFF7B8
:1016EC0013FFFFF701FF4FF001004FF00101FFF76F
:1016FC0035FEFFF7F9FE4FF47A50FFF7A5FEFFF722
:10170C00F3FEFFF751FEFFF75FFEFFF791FFFCE7DB
:10171C00140000200010014080B500AF4FF0010014
:10172C00FFF742FF0346002B11D04FF00100FFF7EB
:10173C0067FF0C4B1B78DBB2002B04D1094B4FF02D
:10174C0001021A7003E0074B4FF000021A70054BB0
:10175C001B78DBB204484FF480511A46FEF79CFF0D
:10176C0080BD00BF1400002000100140002100F0DB
:10177C0004B80B4B5B58435004310A480A4B4218CF
:10178C009A42FFF4F6AF094A00F003B8002342F87E
:10179C00043B074B9A42FFF4F9AFFFF74FFF70473A
:1017AC00171900080000002014000020140000206D
:0817BC0018000020FFF7FEBF3A
:10191700000000000102030401020304060708098E
:0419270002040608A8
:04000005080017795F
:00000001FF
